{
  "contractName": "AccountManagment",
  "abi": [
    {
      "constant": false,
      "inputs": [
        {
          "name": "_temp",
          "type": "address"
        }
      ],
      "name": "addUser",
      "outputs": [],
      "payable": false,
      "stateMutability": "nonpayable",
      "type": "function"
    },
    {
      "constant": true,
      "inputs": [
        {
          "name": "",
          "type": "address"
        }
      ],
      "name": "art",
      "outputs": [
        {
          "name": "artHash",
          "type": "string"
        },
        {
          "name": "author",
          "type": "address"
        },
        {
          "name": "publisher",
          "type": "address"
        },
        {
          "name": "link",
          "type": "string"
        },
        {
          "name": "timestamp",
          "type": "string"
        },
        {
          "name": "aRank",
          "type": "int64"
        },
        {
          "name": "uVote",
          "type": "int64"
        },
        {
          "name": "dVote",
          "type": "int64"
        }
      ],
      "payable": false,
      "stateMutability": "view",
      "type": "function"
    },
    {
      "constant": false,
      "inputs": [
        {
          "name": "_temp",
          "type": "address"
        }
      ],
      "name": "addPublisher",
      "outputs": [],
      "payable": false,
      "stateMutability": "nonpayable",
      "type": "function"
    },
    {
      "constant": false,
      "inputs": [
        {
          "name": "_temp",
          "type": "address"
        }
      ],
      "name": "addNode",
      "outputs": [],
      "payable": false,
      "stateMutability": "nonpayable",
      "type": "function"
    },
    {
      "constant": false,
      "inputs": [
        {
          "name": "_temp",
          "type": "address"
        }
      ],
      "name": "addArticle",
      "outputs": [],
      "payable": false,
      "stateMutability": "nonpayable",
      "type": "function"
    },
    {
      "constant": false,
      "inputs": [
        {
          "name": "_uid",
          "type": "address"
        },
        {
          "name": "_name",
          "type": "string"
        },
        {
          "name": "_email",
          "type": "string"
        }
      ],
      "name": "newUser",
      "outputs": [],
      "payable": false,
      "stateMutability": "nonpayable",
      "type": "function"
    },
    {
      "constant": false,
      "inputs": [
        {
          "name": "_artid",
          "type": "address"
        },
        {
          "name": "_aHash",
          "type": "string"
        },
        {
          "name": "_link",
          "type": "string"
        },
        {
          "name": "_auth",
          "type": "address"
        },
        {
          "name": "_pub",
          "type": "address"
        },
        {
          "name": "_tmstamp",
          "type": "string"
        }
      ],
      "name": "newArticle",
      "outputs": [],
      "payable": false,
      "stateMutability": "nonpayable",
      "type": "function"
    },
    {
      "constant": true,
      "inputs": [
        {
          "name": "_userAddress",
          "type": "address"
        }
      ],
      "name": "getUser",
      "outputs": [
        {
          "name": "name",
          "type": "string"
        },
        {
          "name": "email",
          "type": "string"
        },
        {
          "name": "voteReg",
          "type": "address[]"
        }
      ],
      "payable": false,
      "stateMutability": "view",
      "type": "function"
    },
    {
      "constant": true,
      "inputs": [
        {
          "name": "_artid",
          "type": "address"
        }
      ],
      "name": "getArticle",
      "outputs": [
        {
          "name": "_artHash",
          "type": "string"
        },
        {
          "name": "_author",
          "type": "address"
        },
        {
          "name": "_publisher",
          "type": "address"
        },
        {
          "name": "_link",
          "type": "string"
        },
        {
          "name": "_timestamp",
          "type": "string"
        },
        {
          "name": "_aRank",
          "type": "int256"
        },
        {
          "name": "_uVote",
          "type": "int256"
        },
        {
          "name": "_dVote",
          "type": "int256"
        }
      ],
      "payable": false,
      "stateMutability": "view",
      "type": "function"
    },
    {
      "constant": true,
      "inputs": [
        {
          "name": "_artId",
          "type": "address"
        },
        {
          "name": "_userId",
          "type": "address"
        }
      ],
      "name": "getVote",
      "outputs": [
        {
          "name": "_artVote",
          "type": "uint8"
        }
      ],
      "payable": false,
      "stateMutability": "view",
      "type": "function"
    }
  ],
  "bytecode": "0x608060405234801561001057600080fd5b50611f08806100206000396000f3fe6080604052600436106100a4576000357c0100000000000000000000000000000000000000000000000000000000900463ffffffff16806318fd9763146100a9578063421b2d8b146102ff5780634a746d05146103505780635ab4f162146104cf5780636648a1be146105625780636f77926b14610791578063763f323d1461090f5780639d95f1cc14610960578063b0460aa9146109b1578063fc69456214610bce575b600080fd5b3480156100b557600080fd5b506102fd600480360360c08110156100cc57600080fd5b81019080803573ffffffffffffffffffffffffffffffffffffffff1690602001909291908035906020019064010000000081111561010957600080fd5b82018360208201111561011b57600080fd5b8035906020019184600183028401116401000000008311171561013d57600080fd5b91908080601f016020809104026020016040519081016040528093929190818152602001838380828437600081840152601f19601f820116905080830192505050505050509192919290803590602001906401000000008111156101a057600080fd5b8201836020820111156101b257600080fd5b803590602001918460018302840111640100000000831117156101d457600080fd5b91908080601f016020809104026020016040519081016040528093929190818152602001838380828437600081840152601f19601f820116905080830192505050505050509192919290803573ffffffffffffffffffffffffffffffffffffffff169060200190929190803573ffffffffffffffffffffffffffffffffffffffff1690602001909291908035906020019064010000000081111561027757600080fd5b82018360208201111561028957600080fd5b803590602001918460018302840111640100000000831117156102ab57600080fd5b91908080601f016020809104026020016040519081016040528093929190818152602001838380828437600081840152601f19601f820116905080830192505050505050509192919290505050610c1f565b005b34801561030b57600080fd5b5061034e6004803603602081101561032257600080fd5b81019080803573ffffffffffffffffffffffffffffffffffffffff169060200190929190505050610edd565b005b34801561035c57600080fd5b506104cd6004803603606081101561037357600080fd5b81019080803573ffffffffffffffffffffffffffffffffffffffff169060200190929190803590602001906401000000008111156103b057600080fd5b8201836020820111156103c257600080fd5b803590602001918460018302840111640100000000831117156103e457600080fd5b91908080601f016020809104026020016040519081016040528093929190818152602001838380828437600081840152601f19601f8201169050808301925050505050505091929192908035906020019064010000000081111561044757600080fd5b82018360208201111561045957600080fd5b8035906020019184600183028401116401000000008311171561047b57600080fd5b91908080601f016020809104026020016040519081016040528093929190818152602001838380828437600081840152601f19601f820116905080830192505050505050509192919290505050610fb5565b005b3480156104db57600080fd5b5061053e600480360360408110156104f257600080fd5b81019080803573ffffffffffffffffffffffffffffffffffffffff169060200190929190803573ffffffffffffffffffffffffffffffffffffffff169060200190929190505050611071565b6040518082600281111561054e57fe5b60ff16815260200191505060405180910390f35b34801561056e57600080fd5b506105b16004803603602081101561058557600080fd5b81019080803573ffffffffffffffffffffffffffffffffffffffff169060200190929190505050611108565b60405180806020018973ffffffffffffffffffffffffffffffffffffffff1673ffffffffffffffffffffffffffffffffffffffff1681526020018873ffffffffffffffffffffffffffffffffffffffff1673ffffffffffffffffffffffffffffffffffffffff16815260200180602001806020018760070b60070b81526020018660070b60070b81526020018560070b60070b815260200184810384528c818151815260200191508051906020019080838360005b83811015610681578082015181840152602081019050610666565b50505050905090810190601f1680156106ae5780820380516001836020036101000a031916815260200191505b50848103835289818151815260200191508051906020019080838360005b838110156106e75780820151818401526020810190506106cc565b50505050905090810190601f1680156107145780820380516001836020036101000a031916815260200191505b50848103825288818151815260200191508051906020019080838360005b8381101561074d578082015181840152602081019050610732565b50505050905090810190601f16801561077a5780820380516001836020036101000a031916815260200191505b509b50505050505050505050505060405180910390f35b34801561079d57600080fd5b506107e0600480360360208110156107b457600080fd5b81019080803573ffffffffffffffffffffffffffffffffffffffff16906020019092919050505061137f565b60405180806020018060200180602001848103845287818151815260200191508051906020019080838360005b8381101561082857808201518184015260208101905061080d565b50505050905090810190601f1680156108555780820380516001836020036101000a031916815260200191505b50848103835286818151815260200191508051906020019080838360005b8381101561088e578082015181840152602081019050610873565b50505050905090810190601f1680156108bb5780820380516001836020036101000a031916815260200191505b50848103825285818151815260200191508051906020019060200280838360005b838110156108f75780820151818401526020810190506108dc565b50505050905001965050505050505060405180910390f35b34801561091b57600080fd5b5061095e6004803603602081101561093257600080fd5b81019080803573ffffffffffffffffffffffffffffffffffffffff16906020019092919050505061160e565b005b34801561096c57600080fd5b506109af6004803603602081101561098357600080fd5b81019080803573ffffffffffffffffffffffffffffffffffffffff1690602001909291905050506116e5565b005b3480156109bd57600080fd5b50610a00600480360360208110156109d457600080fd5b81019080803573ffffffffffffffffffffffffffffffffffffffff1690602001909291905050506117bc565b60405180806020018973ffffffffffffffffffffffffffffffffffffffff1673ffffffffffffffffffffffffffffffffffffffff1681526020018873ffffffffffffffffffffffffffffffffffffffff1673ffffffffffffffffffffffffffffffffffffffff168152602001806020018060200187815260200186815260200185815260200184810384528c818151815260200191508051906020019080838360005b83811015610abe578082015181840152602081019050610aa3565b50505050905090810190601f168015610aeb5780820380516001836020036101000a031916815260200191505b50848103835289818151815260200191508051906020019080838360005b83811015610b24578082015181840152602081019050610b09565b50505050905090810190601f168015610b515780820380516001836020036101000a031916815260200191505b50848103825288818151815260200191508051906020019080838360005b83811015610b8a578082015181840152602081019050610b6f565b50505050905090810190601f168015610bb75780820380516001836020036101000a031916815260200191505b509b50505050505050505050505060405180910390f35b348015610bda57600080fd5b50610c1d60048036036020811015610bf157600080fd5b81019080803573ffffffffffffffffffffffffffffffffffffffff169060200190929190505050611c34565b005b610c2833611d0c565b1515610c9c576040517f08c379a000000000000000000000000000000000000000000000000000000000815260040180806020018281038252601f8152602001807f43616e206f6e6c7920626520616363657373656420627920757365722121210081525060200191505060405180910390fd5b610100604051908101604052808681526020018473ffffffffffffffffffffffffffffffffffffffff1681526020018373ffffffffffffffffffffffffffffffffffffffff168152602001858152602001828152602001600060070b8152602001600060070b8152602001600060070b815250600760008873ffffffffffffffffffffffffffffffffffffffff1673ffffffffffffffffffffffffffffffffffffffff1681526020019081526020016000206000820151816000019080519060200190610d6a929190611db7565b5060208201518160010160006101000a81548173ffffffffffffffffffffffffffffffffffffffff021916908373ffffffffffffffffffffffffffffffffffffffff16021790555060408201518160020160006101000a81548173ffffffffffffffffffffffffffffffffffffffff021916908373ffffffffffffffffffffffffffffffffffffffff1602179055506060820151816003019080519060200190610e15929190611db7565b506080820151816004019080519060200190610e32929190611db7565b5060a08201518160050160006101000a81548167ffffffffffffffff021916908360070b67ffffffffffffffff16021790555060c08201518160050160086101000a81548167ffffffffffffffff021916908360070b67ffffffffffffffff16021790555060e08201518160050160106101000a81548167ffffffffffffffff021916908360070b67ffffffffffffffff160217905550905050610ed586611c34565b505050505050565b610ee633611d62565b1515610f5a576040517f08c379a000000000000000000000000000000000000000000000000000000000815260040180806020018281038252601f8152602001807f43616e206f6e6c79206265206163636573736564206279206e6f64652121210081525060200191505060405180910390fd5b6001600360008373ffffffffffffffffffffffffffffffffffffffff1673ffffffffffffffffffffffffffffffffffffffff16815260200190815260200160002060006101000a81548160ff02191690831515021790555050565b81600660008573ffffffffffffffffffffffffffffffffffffffff1673ffffffffffffffffffffffffffffffffffffffff168152602001908152602001600020600001908051906020019061100b929190611e37565b5080600660008573ffffffffffffffffffffffffffffffffffffffff1673ffffffffffffffffffffffffffffffffffffffff1681526020019081526020016000206001019080519060200190611062929190611e37565b5061106c83610edd565b505050565b6000600660008373ffffffffffffffffffffffffffffffffffffffff1673ffffffffffffffffffffffffffffffffffffffff16815260200190815260200160002060020160008473ffffffffffffffffffffffffffffffffffffffff1673ffffffffffffffffffffffffffffffffffffffff16815260200190815260200160002060009054906101000a900460ff16905092915050565b6007602052806000526040600020600091509050806000018054600181600116156101000203166002900480601f0160208091040260200160405190810160405280929190818152602001828054600181600116156101000203166002900480156111b45780601f10611189576101008083540402835291602001916111b4565b820191906000526020600020905b81548152906001019060200180831161119757829003601f168201915b5050505050908060010160009054906101000a900473ffffffffffffffffffffffffffffffffffffffff16908060020160009054906101000a900473ffffffffffffffffffffffffffffffffffffffff1690806003018054600181600116156101000203166002900480601f01602080910402602001604051908101604052809291908181526020018280546001816001161561010002031660029004801561129e5780601f106112735761010080835404028352916020019161129e565b820191906000526020600020905b81548152906001019060200180831161128157829003601f168201915b505050505090806004018054600181600116156101000203166002900480601f01602080910402602001604051908101604052809291908181526020018280546001816001161561010002031660029004801561133c5780601f106113115761010080835404028352916020019161133c565b820191906000526020600020905b81548152906001019060200180831161131f57829003601f168201915b5050505050908060050160009054906101000a900460070b908060050160089054906101000a900460070b908060050160109054906101000a900460070b905088565b6060806060600660008573ffffffffffffffffffffffffffffffffffffffff1673ffffffffffffffffffffffffffffffffffffffff1681526020019081526020016000206000018054600181600116156101000203166002900480601f01602080910402602001604051908101604052809291908181526020018280546001816001161561010002031660029004801561145a5780601f1061142f5761010080835404028352916020019161145a565b820191906000526020600020905b81548152906001019060200180831161143d57829003601f168201915b50505050509250600660008573ffffffffffffffffffffffffffffffffffffffff1673ffffffffffffffffffffffffffffffffffffffff1681526020019081526020016000206001018054600181600116156101000203166002900480601f0160208091040260200160405190810160405280929190818152602001828054600181600116156101000203166002900480156115375780601f1061150c57610100808354040283529160200191611537565b820191906000526020600020905b81548152906001019060200180831161151a57829003601f168201915b50505050509150600660008573ffffffffffffffffffffffffffffffffffffffff1673ffffffffffffffffffffffffffffffffffffffff16815260200190815260200160002060030180548060200260200160405190810160405280929190818152602001828054801561160057602002820191906000526020600020905b8160009054906101000a900473ffffffffffffffffffffffffffffffffffffffff1673ffffffffffffffffffffffffffffffffffffffff16815260200190600101908083116115b6575b505050505090509193909250565b61161733611d0c565b151561168b576040517f08c379a000000000000000000000000000000000000000000000000000000000815260040180806020018281038252601f8152602001807f43616e206f6e6c7920626520616363657373656420627920757365722121210081525060200191505060405180910390fd5b60018060008373ffffffffffffffffffffffffffffffffffffffff1673ffffffffffffffffffffffffffffffffffffffff16815260200190815260200160002060006101000a81548160ff02191690831515021790555050565b6116ee33611d0c565b1515611762576040517f08c379a000000000000000000000000000000000000000000000000000000000815260040180806020018281038252601f8152602001807f43616e206f6e6c7920626520616363657373656420627920757365722121210081525060200191505060405180910390fd5b60016000808373ffffffffffffffffffffffffffffffffffffffff1673ffffffffffffffffffffffffffffffffffffffff16815260200190815260200160002060006101000a81548160ff02191690831515021790555050565b60606000806060806000806000600760008a73ffffffffffffffffffffffffffffffffffffffff1673ffffffffffffffffffffffffffffffffffffffff1681526020019081526020016000206000018054600181600116156101000203166002900480601f01602080910402602001604051908101604052809291908181526020018280546001816001161561010002031660029004801561189f5780601f106118745761010080835404028352916020019161189f565b820191906000526020600020905b81548152906001019060200180831161188257829003601f168201915b50505050509750600760008a73ffffffffffffffffffffffffffffffffffffffff1673ffffffffffffffffffffffffffffffffffffffff16815260200190815260200160002060010160009054906101000a900473ffffffffffffffffffffffffffffffffffffffff169650600760008a73ffffffffffffffffffffffffffffffffffffffff1673ffffffffffffffffffffffffffffffffffffffff16815260200190815260200160002060020160009054906101000a900473ffffffffffffffffffffffffffffffffffffffff169550600760008a73ffffffffffffffffffffffffffffffffffffffff1673ffffffffffffffffffffffffffffffffffffffff1681526020019081526020016000206003018054600181600116156101000203166002900480601f016020809104026020016040519081016040528092919081815260200182805460018160011615610100020316600290048015611a465780601f10611a1b57610100808354040283529160200191611a46565b820191906000526020600020905b815481529060010190602001808311611a2957829003601f168201915b50505050509450600760008a73ffffffffffffffffffffffffffffffffffffffff1673ffffffffffffffffffffffffffffffffffffffff1681526020019081526020016000206004018054600181600116156101000203166002900480601f016020809104026020016040519081016040528092919081815260200182805460018160011615610100020316600290048015611b235780601f10611af857610100808354040283529160200191611b23565b820191906000526020600020905b815481529060010190602001808311611b0657829003601f168201915b50505050509350600760008a73ffffffffffffffffffffffffffffffffffffffff1673ffffffffffffffffffffffffffffffffffffffff16815260200190815260200160002060050160009054906101000a900460070b60070b9250600760008a73ffffffffffffffffffffffffffffffffffffffff1673ffffffffffffffffffffffffffffffffffffffff16815260200190815260200160002060050160089054906101000a900460070b60070b9150600760008a73ffffffffffffffffffffffffffffffffffffffff1673ffffffffffffffffffffffffffffffffffffffff16815260200190815260200160002060050160109054906101000a900460070b60070b9050919395975091939597565b611c3d33611d0c565b1515611cb1576040517f08c379a000000000000000000000000000000000000000000000000000000000815260040180806020018281038252601f8152602001807f43616e206f6e6c7920626520616363657373656420627920757365722121210081525060200191505060405180910390fd5b6001600260008373ffffffffffffffffffffffffffffffffffffffff1673ffffffffffffffffffffffffffffffffffffffff16815260200190815260200160002060006101000a81548160ff02191690831515021790555050565b6000600360008373ffffffffffffffffffffffffffffffffffffffff1673ffffffffffffffffffffffffffffffffffffffff16815260200190815260200160002060009054906101000a900460ff169050919050565b60008060008373ffffffffffffffffffffffffffffffffffffffff1673ffffffffffffffffffffffffffffffffffffffff16815260200190815260200160002060009054906101000a900460ff169050919050565b828054600181600116156101000203166002900490600052602060002090601f016020900481019282601f10611df857805160ff1916838001178555611e26565b82800160010185558215611e26579182015b82811115611e25578251825591602001919060010190611e0a565b5b509050611e339190611eb7565b5090565b828054600181600116156101000203166002900490600052602060002090601f016020900481019282601f10611e7857805160ff1916838001178555611ea6565b82800160010185558215611ea6579182015b82811115611ea5578251825591602001919060010190611e8a565b5b509050611eb39190611eb7565b5090565b611ed991905b80821115611ed5576000816000905550600101611ebd565b5090565b9056fea165627a7a72305820b6b11324dd66e760a98460f029eb1ba6046daec80ef10a9d0847aef15d178f530029",
  "source": "pragma solidity ^0.5.0;\n\nimport \"./Permission.sol\";\nimport \"./Vote.sol\";\n\ncontract AccountManagment is Permission, Vote{\n    struct myNode{\n        address owner;\n    }\n    struct votingData {\n        address arAdd;\n        vote artVote;\n    }\n    mapping (address => myNode) nod;\n    struct myUser{\n        string name;\n        string email;\n        mapping (address => vote) myVotes;\n        address[] artReg;\n    }\n    mapping (address => myUser) usr;\n\n    struct myArticle{\n        string artHash;\n        address author;\n        address publisher;\n        string link;\n        string timestamp;\n        int64 aRank;\n        int64 uVote;\n        int64 dVote;\n    }\n    mapping (address => myArticle) public art;\n    function newUser(address _uid, string memory _name, string memory _email) public  {\n       usr[_uid].name = _name;\n       usr[_uid].email = _email;\n        addUser(_uid);\n    }\n    function newArticle(address _artid, string memory _aHash, string memory _link,\n        address _auth, address _pub, string memory _tmstamp) public onlyUser\n    {\n            art[_artid] = myArticle({artHash: _aHash, author: _auth, publisher: _pub,\n                link: _link, timestamp: _tmstamp, aRank : 0, uVote : 0, dVote : 0});\n        addArticle(_artid);\n    }\n    function getUser(address _userAddress) public view returns(\n        string memory name,\n        string memory email,\n        address[] memory voteReg\n    ) {\n        name = usr[_userAddress].name;\n        email = usr[_userAddress].email;\n        voteReg = usr[_userAddress].artReg;\n    }\n    function getArticle(address _artid) public view returns(\n       string memory _artHash,\n       address _author,\n       address _publisher,\n       string memory _link,\n       string memory _timestamp,\n       int _aRank,\n       int _uVote,\n       int _dVote\n    ) {\n        _artHash = art[_artid].artHash;\n        _author = art[_artid].author;\n        _publisher = art[_artid].publisher;\n        _link = art[_artid].link;\n        _timestamp = art[_artid].timestamp;\n        _aRank = art[_artid].aRank;\n        _uVote = art[_artid].uVote;\n        _dVote = art[_artid].dVote;\n    }\n     function getVote(address _artId, address _userId) public view returns(vote _artVote) {\n        _artVote = usr[_userId].myVotes[_artId];\n    }\n}",
  "sourcePath": "/home/abhiram/Documents/UZ/truffle/contracts/AccountManagment.sol",
  "compiler": {
    "name": "solc",
    "version": "0.5.0+commit.1d4f565a.Emscripten.clang"
  },
  "schemaVersion": "3.0.6",
  "updatedAt": "2019-05-27T17:22:40.734Z",
  "devdoc": {
    "methods": {}
  },
  "userdoc": {
    "methods": {}
  }
}