{
  "contractName": "Main",
  "abi": [
    {
      "constant": false,
      "inputs": [
        {
          "name": "_artid",
          "type": "address"
        },
        {
          "name": "_aHash",
          "type": "string"
        },
        {
          "name": "_link",
          "type": "string"
        },
        {
          "name": "_auth",
          "type": "address"
        },
        {
          "name": "_pub",
          "type": "address"
        },
        {
          "name": "_tmstamp",
          "type": "string"
        }
      ],
      "name": "newArticle",
      "outputs": [],
      "payable": false,
      "stateMutability": "nonpayable",
      "type": "function",
      "signature": "0x18fd9763"
    },
    {
      "constant": false,
      "inputs": [
        {
          "name": "_temp",
          "type": "address"
        }
      ],
      "name": "addUser",
      "outputs": [],
      "payable": false,
      "stateMutability": "nonpayable",
      "type": "function",
      "signature": "0x421b2d8b"
    },
    {
      "constant": false,
      "inputs": [
        {
          "name": "_uid",
          "type": "address"
        },
        {
          "name": "_name",
          "type": "string"
        },
        {
          "name": "_email",
          "type": "string"
        }
      ],
      "name": "newUser",
      "outputs": [],
      "payable": false,
      "stateMutability": "nonpayable",
      "type": "function",
      "signature": "0x4a746d05"
    },
    {
      "constant": false,
      "inputs": [
        {
          "name": "_temp",
          "type": "address"
        }
      ],
      "name": "addPublisher",
      "outputs": [],
      "payable": false,
      "stateMutability": "nonpayable",
      "type": "function",
      "signature": "0x763f323d"
    },
    {
      "constant": false,
      "inputs": [
        {
          "name": "_temp",
          "type": "address"
        }
      ],
      "name": "addNode",
      "outputs": [],
      "payable": false,
      "stateMutability": "nonpayable",
      "type": "function",
      "signature": "0x9d95f1cc"
    },
    {
      "constant": false,
      "inputs": [
        {
          "name": "_pid",
          "type": "address"
        },
        {
          "name": "_name",
          "type": "string"
        },
        {
          "name": "_webAddr",
          "type": "string"
        }
      ],
      "name": "newPublisher",
      "outputs": [],
      "payable": false,
      "stateMutability": "nonpayable",
      "type": "function",
      "signature": "0xed82c04e"
    },
    {
      "constant": false,
      "inputs": [
        {
          "name": "_temp",
          "type": "address"
        }
      ],
      "name": "addArticle",
      "outputs": [],
      "payable": false,
      "stateMutability": "nonpayable",
      "type": "function",
      "signature": "0xfc694562"
    },
    {
      "inputs": [
        {
          "name": "_name",
          "type": "string"
        },
        {
          "name": "_email",
          "type": "string"
        }
      ],
      "payable": false,
      "stateMutability": "nonpayable",
      "type": "constructor",
      "signature": "constructor"
    }
  ],
  "bytecode": "0x60806040523480156200001157600080fd5b506040516200147d3803806200147d833981018060405260408110156200003757600080fd5b8101908080516401000000008111156200005057600080fd5b828101905060208101848111156200006757600080fd5b81518560018202830111640100000000821117156200008557600080fd5b50509291906020018051640100000000811115620000a257600080fd5b82810190506020810184811115620000b957600080fd5b8151856001820283011164010000000082111715620000d757600080fd5b505092919050505060016000803373ffffffffffffffffffffffffffffffffffffffff1673ffffffffffffffffffffffffffffffffffffffff16815260200190815260200160002060006101000a81548160ff021916908315150217905550620001523383836200015a640100000000026401000000009004565b50506200049d565b6200017433620002af640100000000026401000000009004565b1515620001e9576040517f08c379a000000000000000000000000000000000000000000000000000000000815260040180806020018281038252601f8152602001807f43616e206f6e6c79206265206163636573736564206279206e6f64652121210081525060200191505060405180910390fd5b6060604051908101604052808381526020018281526020016000815250600560008573ffffffffffffffffffffffffffffffffffffffff1673ffffffffffffffffffffffffffffffffffffffff168152602001908152602001600020600082015181600001908051906020019062000263929190620003ee565b50602082015181600101908051906020019062000282929190620003ee565b5060408201518160020155905050620002aa8362000304640100000000026401000000009004565b505050565b60008060008373ffffffffffffffffffffffffffffffffffffffff1673ffffffffffffffffffffffffffffffffffffffff16815260200190815260200160002060009054906101000a900460ff169050919050565b6200031e33620002af640100000000026401000000009004565b151562000393576040517f08c379a000000000000000000000000000000000000000000000000000000000815260040180806020018281038252601f8152602001807f43616e206f6e6c79206265206163636573736564206279206e6f64652121210081525060200191505060405180910390fd5b6001600360008373ffffffffffffffffffffffffffffffffffffffff1673ffffffffffffffffffffffffffffffffffffffff16815260200190815260200160002060006101000a81548160ff02191690831515021790555050565b828054600181600116156101000203166002900490600052602060002090601f016020900481019282601f106200043157805160ff191683800117855562000462565b8280016001018555821562000462579182015b828111156200046157825182559160200191906001019062000444565b5b50905062000471919062000475565b5090565b6200049a91905b80821115620004965760008160009055506001016200047c565b5090565b90565b610fd080620004ad6000396000f3fe608060405260043610610083576000357c0100000000000000000000000000000000000000000000000000000000900463ffffffff16806318fd976314610088578063421b2d8b146102de5780634a746d051461032f578063763f323d146104ae5780639d95f1cc146104ff578063ed82c04e14610550578063fc694562146106cf575b600080fd5b34801561009457600080fd5b506102dc600480360360c08110156100ab57600080fd5b81019080803573ffffffffffffffffffffffffffffffffffffffff169060200190929190803590602001906401000000008111156100e857600080fd5b8201836020820111156100fa57600080fd5b8035906020019184600183028401116401000000008311171561011c57600080fd5b91908080601f016020809104026020016040519081016040528093929190818152602001838380828437600081840152601f19601f8201169050808301925050505050505091929192908035906020019064010000000081111561017f57600080fd5b82018360208201111561019157600080fd5b803590602001918460018302840111640100000000831117156101b357600080fd5b91908080601f016020809104026020016040519081016040528093929190818152602001838380828437600081840152601f19601f820116905080830192505050505050509192919290803573ffffffffffffffffffffffffffffffffffffffff169060200190929190803573ffffffffffffffffffffffffffffffffffffffff1690602001909291908035906020019064010000000081111561025657600080fd5b82018360208201111561026857600080fd5b8035906020019184600183028401116401000000008311171561028a57600080fd5b91908080601f016020809104026020016040519081016040528093929190818152602001838380828437600081840152601f19601f820116905080830192505050505050509192919290505050610720565b005b3480156102ea57600080fd5b5061032d6004803603602081101561030157600080fd5b81019080803573ffffffffffffffffffffffffffffffffffffffff169060200190929190505050610929565b005b34801561033b57600080fd5b506104ac6004803603606081101561035257600080fd5b81019080803573ffffffffffffffffffffffffffffffffffffffff1690602001909291908035906020019064010000000081111561038f57600080fd5b8201836020820111156103a157600080fd5b803590602001918460018302840111640100000000831117156103c357600080fd5b91908080601f016020809104026020016040519081016040528093929190818152602001838380828437600081840152601f19601f8201169050808301925050505050505091929192908035906020019064010000000081111561042657600080fd5b82018360208201111561043857600080fd5b8035906020019184600183028401116401000000008311171561045a57600080fd5b91908080601f016020809104026020016040519081016040528093929190818152602001838380828437600081840152601f19601f820116905080830192505050505050509192919290505050610a01565b005b3480156104ba57600080fd5b506104fd600480360360208110156104d157600080fd5b81019080803573ffffffffffffffffffffffffffffffffffffffff169060200190929190505050610b2f565b005b34801561050b57600080fd5b5061054e6004803603602081101561052257600080fd5b81019080803573ffffffffffffffffffffffffffffffffffffffff169060200190929190505050610c06565b005b34801561055c57600080fd5b506106cd6004803603606081101561057357600080fd5b81019080803573ffffffffffffffffffffffffffffffffffffffff169060200190929190803590602001906401000000008111156105b057600080fd5b8201836020820111156105c257600080fd5b803590602001918460018302840111640100000000831117156105e457600080fd5b91908080601f016020809104026020016040519081016040528093929190818152602001838380828437600081840152601f19601f8201169050808301925050505050505091929192908035906020019064010000000081111561064757600080fd5b82018360208201111561065957600080fd5b8035906020019184600183028401116401000000008311171561067b57600080fd5b91908080601f016020809104026020016040519081016040528093929190818152602001838380828437600081840152601f19601f820116905080830192505050505050509192919290505050610cdd565b005b3480156106db57600080fd5b5061071e600480360360208110156106f257600080fd5b81019080803573ffffffffffffffffffffffffffffffffffffffff169060200190929190505050610d7c565b005b61072933610e54565b151561079d576040517f08c379a000000000000000000000000000000000000000000000000000000000815260040180806020018281038252601f8152602001807f43616e206f6e6c7920626520616363657373656420627920757365722121210081525060200191505060405180910390fd5b60a0604051908101604052808681526020018473ffffffffffffffffffffffffffffffffffffffff1681526020018373ffffffffffffffffffffffffffffffffffffffff16815260200185815260200182815250600760008873ffffffffffffffffffffffffffffffffffffffff1673ffffffffffffffffffffffffffffffffffffffff168152602001908152602001600020600082015181600001908051906020019061084c929190610eff565b5060208201518160010160006101000a81548173ffffffffffffffffffffffffffffffffffffffff021916908373ffffffffffffffffffffffffffffffffffffffff16021790555060408201518160020160006101000a81548173ffffffffffffffffffffffffffffffffffffffff021916908373ffffffffffffffffffffffffffffffffffffffff16021790555060608201518160030190805190602001906108f7929190610eff565b506080820151816004019080519060200190610914929190610eff565b5090505061092186610d7c565b505050505050565b61093233610eaa565b15156109a6576040517f08c379a000000000000000000000000000000000000000000000000000000000815260040180806020018281038252601f8152602001807f43616e206f6e6c79206265206163636573736564206279206e6f64652121210081525060200191505060405180910390fd5b6001600360008373ffffffffffffffffffffffffffffffffffffffff1673ffffffffffffffffffffffffffffffffffffffff16815260200190815260200160002060006101000a81548160ff02191690831515021790555050565b610a0a33610eaa565b1515610a7e576040517f08c379a000000000000000000000000000000000000000000000000000000000815260040180806020018281038252601f8152602001807f43616e206f6e6c79206265206163636573736564206279206e6f64652121210081525060200191505060405180910390fd5b6060604051908101604052808381526020018281526020016000815250600560008573ffffffffffffffffffffffffffffffffffffffff1673ffffffffffffffffffffffffffffffffffffffff1681526020019081526020016000206000820151816000019080519060200190610af6929190610eff565b506020820151816001019080519060200190610b13929190610eff565b5060408201518160020155905050610b2a83610929565b505050565b610b3833610e54565b1515610bac576040517f08c379a000000000000000000000000000000000000000000000000000000000815260040180806020018281038252601f8152602001807f43616e206f6e6c7920626520616363657373656420627920757365722121210081525060200191505060405180910390fd5b60018060008373ffffffffffffffffffffffffffffffffffffffff1673ffffffffffffffffffffffffffffffffffffffff16815260200190815260200160002060006101000a81548160ff02191690831515021790555050565b610c0f33610e54565b1515610c83576040517f08c379a000000000000000000000000000000000000000000000000000000000815260040180806020018281038252601f8152602001807f43616e206f6e6c7920626520616363657373656420627920757365722121210081525060200191505060405180910390fd5b60016000808373ffffffffffffffffffffffffffffffffffffffff1673ffffffffffffffffffffffffffffffffffffffff16815260200190815260200160002060006101000a81548160ff02191690831515021790555050565b604080519081016040528083815260200182815250600660008573ffffffffffffffffffffffffffffffffffffffff1673ffffffffffffffffffffffffffffffffffffffff1681526020019081526020016000206000820151816000019080519060200190610d4d929190610eff565b506020820151816001019080519060200190610d6a929190610eff565b50905050610d7783610b2f565b505050565b610d8533610e54565b1515610df9576040517f08c379a000000000000000000000000000000000000000000000000000000000815260040180806020018281038252601f8152602001807f43616e206f6e6c7920626520616363657373656420627920757365722121210081525060200191505060405180910390fd5b6001600260008373ffffffffffffffffffffffffffffffffffffffff1673ffffffffffffffffffffffffffffffffffffffff16815260200190815260200160002060006101000a81548160ff02191690831515021790555050565b6000600360008373ffffffffffffffffffffffffffffffffffffffff1673ffffffffffffffffffffffffffffffffffffffff16815260200190815260200160002060009054906101000a900460ff169050919050565b60008060008373ffffffffffffffffffffffffffffffffffffffff1673ffffffffffffffffffffffffffffffffffffffff16815260200190815260200160002060009054906101000a900460ff169050919050565b828054600181600116156101000203166002900490600052602060002090601f016020900481019282601f10610f4057805160ff1916838001178555610f6e565b82800160010185558215610f6e579182015b82811115610f6d578251825591602001919060010190610f52565b5b509050610f7b9190610f7f565b5090565b610fa191905b80821115610f9d576000816000905550600101610f85565b5090565b9056fea165627a7a723058202d1f5f3be16d948b4734fa8a6957963828f22d683e845b739edaaa2c6820a78b0029",
  "source": "pragma solidity ^0.5.0;\n\nimport './AccountManagment.sol';\n\ncontract Main is AccountManagment {\n    constructor(string memory _name, string memory _email) public {\n        node[msg.sender] = true;\n        newUser(msg.sender, _name, _email);\n    }\n}",
  "sourcePath": "/home/abhiram/Documents/UZ/truffle/contracts/Main.sol",
  "compiler": {
    "name": "solc",
    "version": "0.5.0+commit.1d4f565a.Emscripten.clang"
  },
  "schemaVersion": "3.0.6",
  "updatedAt": "2019-05-08T17:01:42.240Z",
  "devdoc": {
    "methods": {}
  },
  "userdoc": {
    "methods": {}
  }
}