{
  "contractName": "Permission",
  "abi": [
    {
      "constant": false,
      "inputs": [
        {
          "name": "_temp",
          "type": "address"
        }
      ],
      "name": "addNode",
      "outputs": [],
      "payable": false,
      "stateMutability": "nonpayable",
      "type": "function",
      "signature": "0x9d95f1cc"
    },
    {
      "constant": false,
      "inputs": [
        {
          "name": "_temp",
          "type": "address"
        }
      ],
      "name": "addPublisher",
      "outputs": [],
      "payable": false,
      "stateMutability": "nonpayable",
      "type": "function",
      "signature": "0x763f323d"
    },
    {
      "constant": false,
      "inputs": [
        {
          "name": "_temp",
          "type": "address"
        }
      ],
      "name": "addArticle",
      "outputs": [],
      "payable": false,
      "stateMutability": "nonpayable",
      "type": "function",
      "signature": "0xfc694562"
    },
    {
      "constant": false,
      "inputs": [
        {
          "name": "_temp",
          "type": "address"
        }
      ],
      "name": "addUser",
      "outputs": [],
      "payable": false,
      "stateMutability": "nonpayable",
      "type": "function",
      "signature": "0x421b2d8b"
    }
  ],
  "bytecode": "0x608060405234801561001057600080fd5b5061050e806100206000396000f3fe608060405260043610610062576000357c0100000000000000000000000000000000000000000000000000000000900463ffffffff168063421b2d8b14610067578063763f323d146100b85780639d95f1cc14610109578063fc6945621461015a575b600080fd5b34801561007357600080fd5b506100b66004803603602081101561008a57600080fd5b81019080803573ffffffffffffffffffffffffffffffffffffffff1690602001909291905050506101ab565b005b3480156100c457600080fd5b50610107600480360360208110156100db57600080fd5b81019080803573ffffffffffffffffffffffffffffffffffffffff169060200190929190505050610206565b005b34801561011557600080fd5b506101586004803603602081101561012c57600080fd5b81019080803573ffffffffffffffffffffffffffffffffffffffff1690602001909291905050506102dd565b005b34801561016657600080fd5b506101a96004803603602081101561017d57600080fd5b81019080803573ffffffffffffffffffffffffffffffffffffffff1690602001909291905050506103b4565b005b6001600360008373ffffffffffffffffffffffffffffffffffffffff1673ffffffffffffffffffffffffffffffffffffffff16815260200190815260200160002060006101000a81548160ff02191690831515021790555050565b61020f3361048c565b1515610283576040517f08c379a000000000000000000000000000000000000000000000000000000000815260040180806020018281038252601f8152602001807f43616e206f6e6c7920626520616363657373656420627920757365722121210081525060200191505060405180910390fd5b60018060008373ffffffffffffffffffffffffffffffffffffffff1673ffffffffffffffffffffffffffffffffffffffff16815260200190815260200160002060006101000a81548160ff02191690831515021790555050565b6102e63361048c565b151561035a576040517f08c379a000000000000000000000000000000000000000000000000000000000815260040180806020018281038252601f8152602001807f43616e206f6e6c7920626520616363657373656420627920757365722121210081525060200191505060405180910390fd5b60016000808373ffffffffffffffffffffffffffffffffffffffff1673ffffffffffffffffffffffffffffffffffffffff16815260200190815260200160002060006101000a81548160ff02191690831515021790555050565b6103bd3361048c565b1515610431576040517f08c379a000000000000000000000000000000000000000000000000000000000815260040180806020018281038252601f8152602001807f43616e206f6e6c7920626520616363657373656420627920757365722121210081525060200191505060405180910390fd5b6001600260008373ffffffffffffffffffffffffffffffffffffffff1673ffffffffffffffffffffffffffffffffffffffff16815260200190815260200160002060006101000a81548160ff02191690831515021790555050565b6000600360008373ffffffffffffffffffffffffffffffffffffffff1673ffffffffffffffffffffffffffffffffffffffff16815260200190815260200160002060009054906101000a900460ff16905091905056fea165627a7a72305820015b17fa9a857eaf41907d7ae9ea4cf6772cfa7de479f85e4f40d954796ef9880029",
  "source": "pragma solidity ^0.5.0;\n\ncontract Permission{\n\n    mapping (address => bool) node;\n    mapping (address => bool) publisher;\n    mapping (address => bool) article;\n    mapping (address => bool) user;\n    function isNode( address _temp ) private view returns(bool _val) {\n        _val = node[_temp];\n    }\n    function isPublisher( address _temp ) private view returns(bool _val) {\n        _val = publisher[_temp];\n    }\n    function isArticle( address _temp ) private view returns(bool _val) {\n        _val = article[_temp];\n    }\n    function isUser( address _temp ) private view returns(bool _val) {\n        _val = user[_temp];\n    }\n    modifier onlyNode{\n        require(isNode(msg.sender),\"Can only be accessed by node!!!\");\n        _;\n    }\n    modifier onlyPublisher{\n        require(isPublisher(msg.sender),\"Can only be accessed by publisher!!!\");\n        _;\n    }\n    modifier onlyArticle{\n        require(isArticle(msg.sender),\"Can only be accessed by article!!!\");\n        _;\n    }\n    modifier onlyUser{\n        require(isUser(msg.sender),\"Can only be accessed by user!!!\");\n        _;\n    }\n    function addNode(address _temp) public onlyUser {\n        node[_temp] = true;\n    }\n    function addPublisher(address _temp) public onlyUser {\n        publisher[_temp] = true;\n    }\n    function addArticle(address _temp) public onlyUser {\n        article[_temp] = true;\n    }\n    function addUser(address _temp) public{\n        user[_temp] = true;\n    }\n}",
  "sourcePath": "/home/shivji/CodeWorld/UZ/truffle/contracts/Permission.sol",
  "compiler": {
    "name": "solc",
    "version": "0.5.0+commit.1d4f565a.Emscripten.clang"
  },
  "schemaVersion": "3.0.6",
  "updatedAt": "2019-05-28T16:54:20.317Z",
  "devdoc": {
    "methods": {}
  },
  "userdoc": {
    "methods": {}
  }
}