{
  "contractName": "Permission",
  "abi": [
    {
      "constant": false,
      "inputs": [
        {
          "name": "_temp",
          "type": "address"
        }
      ],
      "name": "addNode",
      "outputs": [],
      "payable": false,
      "stateMutability": "nonpayable",
      "type": "function"
    },
    {
      "constant": false,
      "inputs": [
        {
          "name": "_temp",
          "type": "address"
        }
      ],
      "name": "addPublisher",
      "outputs": [],
      "payable": false,
      "stateMutability": "nonpayable",
      "type": "function"
    },
    {
      "constant": false,
      "inputs": [
        {
          "name": "_temp",
          "type": "address"
        }
      ],
      "name": "addArticle",
      "outputs": [],
      "payable": false,
      "stateMutability": "nonpayable",
      "type": "function"
    },
    {
      "constant": false,
      "inputs": [
        {
          "name": "_temp",
          "type": "address"
        }
      ],
      "name": "addUser",
      "outputs": [],
      "payable": false,
      "stateMutability": "nonpayable",
      "type": "function"
    }
  ],
  "bytecode": "0x608060405234801561001057600080fd5b506105e0806100206000396000f3fe608060405260043610610062576000357c0100000000000000000000000000000000000000000000000000000000900463ffffffff168063421b2d8b14610067578063763f323d146100b85780639d95f1cc14610109578063fc6945621461015a575b600080fd5b34801561007357600080fd5b506100b66004803603602081101561008a57600080fd5b81019080803573ffffffffffffffffffffffffffffffffffffffff1690602001909291905050506101ab565b005b3480156100c457600080fd5b50610107600480360360208110156100db57600080fd5b81019080803573ffffffffffffffffffffffffffffffffffffffff169060200190929190505050610283565b005b34801561011557600080fd5b506101586004803603602081101561012c57600080fd5b81019080803573ffffffffffffffffffffffffffffffffffffffff16906020019092919050505061035a565b005b34801561016657600080fd5b506101a96004803603602081101561017d57600080fd5b81019080803573ffffffffffffffffffffffffffffffffffffffff169060200190929190505050610431565b005b6101b433610509565b1515610228576040517f08c379a000000000000000000000000000000000000000000000000000000000815260040180806020018281038252601f8152602001807f43616e206f6e6c79206265206163636573736564206279206e6f64652121210081525060200191505060405180910390fd5b6001600360008373ffffffffffffffffffffffffffffffffffffffff1673ffffffffffffffffffffffffffffffffffffffff16815260200190815260200160002060006101000a81548160ff02191690831515021790555050565b61028c3361055e565b1515610300576040517f08c379a000000000000000000000000000000000000000000000000000000000815260040180806020018281038252601f8152602001807f43616e206f6e6c7920626520616363657373656420627920757365722121210081525060200191505060405180910390fd5b60018060008373ffffffffffffffffffffffffffffffffffffffff1673ffffffffffffffffffffffffffffffffffffffff16815260200190815260200160002060006101000a81548160ff02191690831515021790555050565b6103633361055e565b15156103d7576040517f08c379a000000000000000000000000000000000000000000000000000000000815260040180806020018281038252601f8152602001807f43616e206f6e6c7920626520616363657373656420627920757365722121210081525060200191505060405180910390fd5b60016000808373ffffffffffffffffffffffffffffffffffffffff1673ffffffffffffffffffffffffffffffffffffffff16815260200190815260200160002060006101000a81548160ff02191690831515021790555050565b61043a3361055e565b15156104ae576040517f08c379a000000000000000000000000000000000000000000000000000000000815260040180806020018281038252601f8152602001807f43616e206f6e6c7920626520616363657373656420627920757365722121210081525060200191505060405180910390fd5b6001600260008373ffffffffffffffffffffffffffffffffffffffff1673ffffffffffffffffffffffffffffffffffffffff16815260200190815260200160002060006101000a81548160ff02191690831515021790555050565b60008060008373ffffffffffffffffffffffffffffffffffffffff1673ffffffffffffffffffffffffffffffffffffffff16815260200190815260200160002060009054906101000a900460ff169050919050565b6000600360008373ffffffffffffffffffffffffffffffffffffffff1673ffffffffffffffffffffffffffffffffffffffff16815260200190815260200160002060009054906101000a900460ff16905091905056fea165627a7a72305820a00ce13c82dfa335fba6736fed6bc00a375d3e197e53074a4b491316427f2ee40029",
  "source": "pragma solidity ^0.5.0;\n\ncontract Permission{\n\n    mapping (address => bool) node;\n    mapping (address => bool) publisher;\n    mapping (address => bool) article;\n    mapping (address => bool) user;\n    function isNode( address _temp ) private view returns(bool _val) {\n        _val = node[_temp];\n    }\n    function isPublisher( address _temp ) private view returns(bool _val) {\n        _val = publisher[_temp];\n    }\n    function isArticle( address _temp ) private view returns(bool _val) {\n        _val = article[_temp];\n    }\n    function isUser( address _temp ) private view returns(bool _val) {\n        _val = user[_temp];\n    }\n    modifier onlyNode{\n        require(isNode(msg.sender),\"Can only be accessed by node!!!\");\n        _;\n    }\n    modifier onlyPublisher{\n        require(isPublisher(msg.sender),\"Can only be accessed by publisher!!!\");\n        _;\n    }\n    modifier onlyArticle{\n        require(isArticle(msg.sender),\"Can only be accessed by article!!!\");\n        _;\n    }\n    modifier onlyUser{\n        require(isUser(msg.sender),\"Can only be accessed by user!!!\");\n        _;\n    }\n    function addNode(address _temp) public onlyUser {\n        node[_temp] = true;\n    }\n    function addPublisher(address _temp) public onlyUser {\n        publisher[_temp] = true;\n    }\n    function addArticle(address _temp) public onlyUser {\n        article[_temp] = true;\n    }\n    function addUser(address _temp) public onlyNode{\n        user[_temp] = true;\n    }\n}",
  "sourcePath": "/home/abhiram/Documents/UZ/truffle/contracts/Permission.sol",
  "compiler": {
    "name": "solc",
    "version": "0.5.0+commit.1d4f565a.Emscripten.clang"
  },
  "schemaVersion": "3.0.6",
  "updatedAt": "2019-05-07T15:20:45.895Z",
  "devdoc": {
    "methods": {}
  },
  "userdoc": {
    "methods": {}
  }
}