{
  "contractName": "Sqrt",
  "abi": [
    {
      "constant": true,
      "inputs": [
        {
          "name": "num",
          "type": "int64"
        }
      ],
      "name": "sqrt",
      "outputs": [
        {
          "name": "",
          "type": "int64"
        }
      ],
      "payable": false,
      "stateMutability": "pure",
      "type": "function"
    }
  ],
  "bytecode": "0x608060405234801561001057600080fd5b5061015d806100206000396000f3fe608060405260043610610041576000357c0100000000000000000000000000000000000000000000000000000000900463ffffffff1680630e96becb14610046575b600080fd5b34801561005257600080fd5b506100826004803603602081101561006957600080fd5b81019080803560070b906020019092919050505061009e565b604051808260070b60070b815260200191505060405180910390f35b600060018260070b14156100b5576001905061012c565b600060028360070b8115156100c657fe5b05905060008390505b8060070b8260070b12156101265781905060008260020260070b838402860360070b8115156100fa57fe5b059050600081840190508060020260070b82830260070b81151561011a57fe5b058103935050506100cf565b81925050505b91905056fea165627a7a72305820370ece5872c56499623d69b769cb899b7adb1c9fd17f030519ce73faeba48a190029",
  "source": "pragma solidity ^0.5.0;\n\ncontract Sqrt {\n    function sqrt(int64  num)  public pure returns(int64){\n        if( num == 1){\n            return 1;\n        }\n          int64 root = (num)/2;\n          int64 store = num;\n        while(root < store) {\n            // i = i +1;\n            store = root;\n            int64  a = (num-(root*root))/(2*root);\n            int64  b = root + a;\n            root = b-(a*a/(2*b));\n        }\n        return root;\n    }\n}",
  "sourcePath": "/home/abhiram/Documents/UZ/truffle/contracts/Sqrt.sol",
  "compiler": {
    "name": "solc",
    "version": "0.5.0+commit.1d4f565a.Emscripten.clang"
  },
  "schemaVersion": "3.0.6",
  "updatedAt": "2019-05-26T06:41:31.804Z",
  "devdoc": {
    "methods": {}
  },
  "userdoc": {
    "methods": {}
  }
}