{
  "contractName": "voting",
  "abi": [
    {
      "constant": true,
      "inputs": [
        {
          "name": "num",
          "type": "int64"
        }
      ],
      "name": "sqrt",
      "outputs": [
        {
          "name": "",
          "type": "int64"
        }
      ],
      "payable": false,
      "stateMutability": "pure",
      "type": "function"
    },
    {
      "constant": false,
      "inputs": [
        {
          "name": "_artid",
          "type": "address"
        },
        {
          "name": "_aHash",
          "type": "string"
        },
        {
          "name": "_link",
          "type": "string"
        },
        {
          "name": "_auth",
          "type": "address"
        },
        {
          "name": "_pub",
          "type": "address"
        },
        {
          "name": "_tmstamp",
          "type": "string"
        }
      ],
      "name": "newArticle",
      "outputs": [],
      "payable": false,
      "stateMutability": "nonpayable",
      "type": "function"
    },
    {
      "constant": false,
      "inputs": [
        {
          "name": "_temp",
          "type": "address"
        }
      ],
      "name": "addUser",
      "outputs": [],
      "payable": false,
      "stateMutability": "nonpayable",
      "type": "function"
    },
    {
      "constant": false,
      "inputs": [
        {
          "name": "_uid",
          "type": "address"
        },
        {
          "name": "_name",
          "type": "string"
        },
        {
          "name": "_email",
          "type": "string"
        }
      ],
      "name": "newUser",
      "outputs": [],
      "payable": false,
      "stateMutability": "nonpayable",
      "type": "function"
    },
    {
      "constant": true,
      "inputs": [
        {
          "name": "",
          "type": "address"
        }
      ],
      "name": "art",
      "outputs": [
        {
          "name": "artHash",
          "type": "string"
        },
        {
          "name": "author",
          "type": "address"
        },
        {
          "name": "publisher",
          "type": "address"
        },
        {
          "name": "link",
          "type": "string"
        },
        {
          "name": "timestamp",
          "type": "string"
        },
        {
          "name": "aRank",
          "type": "int64"
        },
        {
          "name": "uVote",
          "type": "int64"
        },
        {
          "name": "dVote",
          "type": "int64"
        }
      ],
      "payable": false,
      "stateMutability": "view",
      "type": "function"
    },
    {
      "constant": true,
      "inputs": [
        {
          "name": "_userAddress",
          "type": "address"
        }
      ],
      "name": "getUser",
      "outputs": [
        {
          "name": "name",
          "type": "string"
        },
        {
          "name": "email",
          "type": "string"
        },
        {
          "name": "voteReg",
          "type": "address[]"
        }
      ],
      "payable": false,
      "stateMutability": "view",
      "type": "function"
    },
    {
      "constant": false,
      "inputs": [
        {
          "name": "_temp",
          "type": "address"
        }
      ],
      "name": "addPublisher",
      "outputs": [],
      "payable": false,
      "stateMutability": "nonpayable",
      "type": "function"
    },
    {
      "constant": false,
      "inputs": [
        {
          "name": "_temp",
          "type": "address"
        }
      ],
      "name": "addNode",
      "outputs": [],
      "payable": false,
      "stateMutability": "nonpayable",
      "type": "function"
    },
    {
      "constant": true,
      "inputs": [
        {
          "name": "_artid",
          "type": "address"
        }
      ],
      "name": "getArticle",
      "outputs": [
        {
          "name": "_artHash",
          "type": "string"
        },
        {
          "name": "_author",
          "type": "address"
        },
        {
          "name": "_publisher",
          "type": "address"
        },
        {
          "name": "_link",
          "type": "string"
        },
        {
          "name": "_timestamp",
          "type": "string"
        },
        {
          "name": "_aRank",
          "type": "int256"
        },
        {
          "name": "_uVote",
          "type": "int256"
        },
        {
          "name": "_dVote",
          "type": "int256"
        }
      ],
      "payable": false,
      "stateMutability": "view",
      "type": "function"
    },
    {
      "constant": true,
      "inputs": [
        {
          "name": "",
          "type": "address"
        },
        {
          "name": "",
          "type": "uint256"
        }
      ],
      "name": "artVotes",
      "outputs": [
        {
          "name": "adr",
          "type": "address"
        },
        {
          "name": "v",
          "type": "bool"
        }
      ],
      "payable": false,
      "stateMutability": "view",
      "type": "function"
    },
    {
      "constant": false,
      "inputs": [
        {
          "name": "_temp",
          "type": "address"
        }
      ],
      "name": "addArticle",
      "outputs": [],
      "payable": false,
      "stateMutability": "nonpayable",
      "type": "function"
    },
    {
      "constant": false,
      "inputs": [
        {
          "name": "_up",
          "type": "bool"
        },
        {
          "name": "_artAddress",
          "type": "address"
        }
      ],
      "name": "voteArticle",
      "outputs": [],
      "payable": true,
      "stateMutability": "payable",
      "type": "function"
    },
    {
      "constant": true,
      "inputs": [
        {
          "name": "_artId",
          "type": "address"
        },
        {
          "name": "_userId",
          "type": "address"
        }
      ],
      "name": "getVote",
      "outputs": [
        {
          "name": "_artVote",
          "type": "uint8"
        }
      ],
      "payable": false,
      "stateMutability": "view",
      "type": "function"
    },
    {
      "constant": true,
      "inputs": [
        {
          "name": "_index",
          "type": "uint256"
        },
        {
          "name": "_addr",
          "type": "address"
        }
      ],
      "name": "getVote",
      "outputs": [
        {
          "name": "",
          "type": "bool"
        }
      ],
      "payable": false,
      "stateMutability": "view",
      "type": "function"
    },
    {
      "constant": false,
      "inputs": [
        {
          "name": "_artAddress",
          "type": "address"
        }
      ],
      "name": "updateRanking",
      "outputs": [],
      "payable": false,
      "stateMutability": "nonpayable",
      "type": "function"
    }
  ],
  "bytecode": "0x608060405234801561001057600080fd5b50612f9b806100206000396000f3fe6080604052600436106100db576000357c0100000000000000000000000000000000000000000000000000000000900463ffffffff1680630e96becb146100e057806318fd976314610138578063421b2d8b1461038e5780634a746d05146103df5780635ab4f1621461055e5780636648a1be146105f15780636a1e55d8146108205780636f77926b14610870578063763f323d146109ee5780639d95f1cc14610a3f578063b0460aa914610a90578063bc3f931f14610cad578063e0f9b3f614610d20578063f4f4fbcb14610d71578063fc69456214610e17575b600080fd5b3480156100ec57600080fd5b5061011c6004803603602081101561010357600080fd5b81019080803560070b9060200190929190505050610e68565b604051808260070b60070b815260200191505060405180910390f35b34801561014457600080fd5b5061038c600480360360c081101561015b57600080fd5b81019080803573ffffffffffffffffffffffffffffffffffffffff1690602001909291908035906020019064010000000081111561019857600080fd5b8201836020820111156101aa57600080fd5b803590602001918460018302840111640100000000831117156101cc57600080fd5b91908080601f016020809104026020016040519081016040528093929190818152602001838380828437600081840152601f19601f8201169050808301925050505050505091929192908035906020019064010000000081111561022f57600080fd5b82018360208201111561024157600080fd5b8035906020019184600183028401116401000000008311171561026357600080fd5b91908080601f016020809104026020016040519081016040528093929190818152602001838380828437600081840152601f19601f820116905080830192505050505050509192919290803573ffffffffffffffffffffffffffffffffffffffff169060200190929190803573ffffffffffffffffffffffffffffffffffffffff1690602001909291908035906020019064010000000081111561030657600080fd5b82018360208201111561031857600080fd5b8035906020019184600183028401116401000000008311171561033a57600080fd5b91908080601f016020809104026020016040519081016040528093929190818152602001838380828437600081840152601f19601f820116905080830192505050505050509192919290505050610efb565b005b34801561039a57600080fd5b506103dd600480360360208110156103b157600080fd5b81019080803573ffffffffffffffffffffffffffffffffffffffff1690602001909291905050506111b9565b005b3480156103eb57600080fd5b5061055c6004803603606081101561040257600080fd5b81019080803573ffffffffffffffffffffffffffffffffffffffff1690602001909291908035906020019064010000000081111561043f57600080fd5b82018360208201111561045157600080fd5b8035906020019184600183028401116401000000008311171561047357600080fd5b91908080601f016020809104026020016040519081016040528093929190818152602001838380828437600081840152601f19601f820116905080830192505050505050509192919290803590602001906401000000008111156104d657600080fd5b8201836020820111156104e857600080fd5b8035906020019184600183028401116401000000008311171561050a57600080fd5b91908080601f016020809104026020016040519081016040528093929190818152602001838380828437600081840152601f19601f820116905080830192505050505050509192919290505050611291565b005b34801561056a57600080fd5b506105cd6004803603604081101561058157600080fd5b81019080803573ffffffffffffffffffffffffffffffffffffffff169060200190929190803573ffffffffffffffffffffffffffffffffffffffff1690602001909291905050506113ca565b604051808260028111156105dd57fe5b60ff16815260200191505060405180910390f35b3480156105fd57600080fd5b506106406004803603602081101561061457600080fd5b81019080803573ffffffffffffffffffffffffffffffffffffffff169060200190929190505050611461565b60405180806020018973ffffffffffffffffffffffffffffffffffffffff1673ffffffffffffffffffffffffffffffffffffffff1681526020018873ffffffffffffffffffffffffffffffffffffffff1673ffffffffffffffffffffffffffffffffffffffff16815260200180602001806020018760070b60070b81526020018660070b60070b81526020018560070b60070b815260200184810384528c818151815260200191508051906020019080838360005b838110156107105780820151818401526020810190506106f5565b50505050905090810190601f16801561073d5780820380516001836020036101000a031916815260200191505b50848103835289818151815260200191508051906020019080838360005b8381101561077657808201518184015260208101905061075b565b50505050905090810190601f1680156107a35780820380516001836020036101000a031916815260200191505b50848103825288818151815260200191508051906020019080838360005b838110156107dc5780820151818401526020810190506107c1565b50505050905090810190601f1680156108095780820380516001836020036101000a031916815260200191505b509b50505050505050505050505060405180910390f35b61086e6004803603604081101561083657600080fd5b81019080803515159060200190929190803573ffffffffffffffffffffffffffffffffffffffff1690602001909291905050506116d8565b005b34801561087c57600080fd5b506108bf6004803603602081101561089357600080fd5b81019080803573ffffffffffffffffffffffffffffffffffffffff169060200190929190505050612216565b60405180806020018060200180602001848103845287818151815260200191508051906020019080838360005b838110156109075780820151818401526020810190506108ec565b50505050905090810190601f1680156109345780820380516001836020036101000a031916815260200191505b50848103835286818151815260200191508051906020019080838360005b8381101561096d578082015181840152602081019050610952565b50505050905090810190601f16801561099a5780820380516001836020036101000a031916815260200191505b50848103825285818151815260200191508051906020019060200280838360005b838110156109d65780820151818401526020810190506109bb565b50505050905001965050505050505060405180910390f35b3480156109fa57600080fd5b50610a3d60048036036020811015610a1157600080fd5b81019080803573ffffffffffffffffffffffffffffffffffffffff1690602001909291905050506124a5565b005b348015610a4b57600080fd5b50610a8e60048036036020811015610a6257600080fd5b81019080803573ffffffffffffffffffffffffffffffffffffffff16906020019092919050505061257c565b005b348015610a9c57600080fd5b50610adf60048036036020811015610ab357600080fd5b81019080803573ffffffffffffffffffffffffffffffffffffffff169060200190929190505050612653565b60405180806020018973ffffffffffffffffffffffffffffffffffffffff1673ffffffffffffffffffffffffffffffffffffffff1681526020018873ffffffffffffffffffffffffffffffffffffffff1673ffffffffffffffffffffffffffffffffffffffff168152602001806020018060200187815260200186815260200185815260200184810384528c818151815260200191508051906020019080838360005b83811015610b9d578082015181840152602081019050610b82565b50505050905090810190601f168015610bca5780820380516001836020036101000a031916815260200191505b50848103835289818151815260200191508051906020019080838360005b83811015610c03578082015181840152602081019050610be8565b50505050905090810190601f168015610c305780820380516001836020036101000a031916815260200191505b50848103825288818151815260200191508051906020019080838360005b83811015610c69578082015181840152602081019050610c4e565b50505050905090810190601f168015610c965780820380516001836020036101000a031916815260200191505b509b50505050505050505050505060405180910390f35b348015610cb957600080fd5b50610d0660048036036040811015610cd057600080fd5b8101908080359060200190929190803573ffffffffffffffffffffffffffffffffffffffff169060200190929190505050612acb565b604051808215151515815260200191505060405180910390f35b348015610d2c57600080fd5b50610d6f60048036036020811015610d4357600080fd5b81019080803573ffffffffffffffffffffffffffffffffffffffff169060200190929190505050612b3c565b005b348015610d7d57600080fd5b50610dca60048036036040811015610d9457600080fd5b81019080803573ffffffffffffffffffffffffffffffffffffffff16906020019092919080359060200190929190505050612c5e565b604051808373ffffffffffffffffffffffffffffffffffffffff1673ffffffffffffffffffffffffffffffffffffffff168152602001821515151581526020019250505060405180910390f35b348015610e2357600080fd5b50610e6660048036036020811015610e3a57600080fd5b81019080803573ffffffffffffffffffffffffffffffffffffffff169060200190929190505050612cc7565b005b600060018260070b1415610e7f5760019050610ef6565b600060028360070b811515610e9057fe5b05905060008390505b8060070b8260070b1215610ef05781905060008260020260070b838402860360070b811515610ec457fe5b059050600081840190508060020260070b82830260070b811515610ee457fe5b05810393505050610e99565b81925050505b919050565b610f0433612d9f565b1515610f78576040517f08c379a000000000000000000000000000000000000000000000000000000000815260040180806020018281038252601f8152602001807f43616e206f6e6c7920626520616363657373656420627920757365722121210081525060200191505060405180910390fd5b610100604051908101604052808681526020018473ffffffffffffffffffffffffffffffffffffffff1681526020018373ffffffffffffffffffffffffffffffffffffffff168152602001858152602001828152602001606460070b8152602001600060070b8152602001600060070b815250600760008873ffffffffffffffffffffffffffffffffffffffff1673ffffffffffffffffffffffffffffffffffffffff1681526020019081526020016000206000820151816000019080519060200190611046929190612e4a565b5060208201518160010160006101000a81548173ffffffffffffffffffffffffffffffffffffffff021916908373ffffffffffffffffffffffffffffffffffffffff16021790555060408201518160020160006101000a81548173ffffffffffffffffffffffffffffffffffffffff021916908373ffffffffffffffffffffffffffffffffffffffff16021790555060608201518160030190805190602001906110f1929190612e4a565b50608082015181600401908051906020019061110e929190612e4a565b5060a08201518160050160006101000a81548167ffffffffffffffff021916908360070b67ffffffffffffffff16021790555060c08201518160050160086101000a81548167ffffffffffffffff021916908360070b67ffffffffffffffff16021790555060e08201518160050160106101000a81548167ffffffffffffffff021916908360070b67ffffffffffffffff1602179055509050506111b186612cc7565b505050505050565b6111c233612df5565b1515611236576040517f08c379a000000000000000000000000000000000000000000000000000000000815260040180806020018281038252601f8152602001807f43616e206f6e6c79206265206163636573736564206279206e6f64652121210081525060200191505060405180910390fd5b6001600360008373ffffffffffffffffffffffffffffffffffffffff1673ffffffffffffffffffffffffffffffffffffffff16815260200190815260200160002060006101000a81548160ff02191690831515021790555050565b61129a33612df5565b151561130e576040517f08c379a000000000000000000000000000000000000000000000000000000000815260040180806020018281038252601f8152602001807f43616e206f6e6c79206265206163636573736564206279206e6f64652121210081525060200191505060405180910390fd5b81600660008573ffffffffffffffffffffffffffffffffffffffff1673ffffffffffffffffffffffffffffffffffffffff1681526020019081526020016000206000019080519060200190611364929190612eca565b5080600660008573ffffffffffffffffffffffffffffffffffffffff1673ffffffffffffffffffffffffffffffffffffffff16815260200190815260200160002060010190805190602001906113bb929190612eca565b506113c5836111b9565b505050565b6000600660008373ffffffffffffffffffffffffffffffffffffffff1673ffffffffffffffffffffffffffffffffffffffff16815260200190815260200160002060020160008473ffffffffffffffffffffffffffffffffffffffff1673ffffffffffffffffffffffffffffffffffffffff16815260200190815260200160002060009054906101000a900460ff16905092915050565b6007602052806000526040600020600091509050806000018054600181600116156101000203166002900480601f01602080910402602001604051908101604052809291908181526020018280546001816001161561010002031660029004801561150d5780601f106114e25761010080835404028352916020019161150d565b820191906000526020600020905b8154815290600101906020018083116114f057829003601f168201915b5050505050908060010160009054906101000a900473ffffffffffffffffffffffffffffffffffffffff16908060020160009054906101000a900473ffffffffffffffffffffffffffffffffffffffff1690806003018054600181600116156101000203166002900480601f0160208091040260200160405190810160405280929190818152602001828054600181600116156101000203166002900480156115f75780601f106115cc576101008083540402835291602001916115f7565b820191906000526020600020905b8154815290600101906020018083116115da57829003601f168201915b505050505090806004018054600181600116156101000203166002900480601f0160208091040260200160405190810160405280929190818152602001828054600181600116156101000203166002900480156116955780601f1061166a57610100808354040283529160200191611695565b820191906000526020600020905b81548152906001019060200180831161167857829003601f168201915b5050505050908060050160009054906101000a900460070b908060050160089054906101000a900460070b908060050160109054906101000a900460070b905088565b60008215611c765760008090505b600860008473ffffffffffffffffffffffffffffffffffffffff1673ffffffffffffffffffffffffffffffffffffffff16815260200190815260200160002080549050811015611aeb573373ffffffffffffffffffffffffffffffffffffffff16600860008573ffffffffffffffffffffffffffffffffffffffff1673ffffffffffffffffffffffffffffffffffffffff1681526020019081526020016000208281548110151561179357fe5b9060005260206000200160000160009054906101000a900473ffffffffffffffffffffffffffffffffffffffff1673ffffffffffffffffffffffffffffffffffffffff161415611ade576001915060011515600860008573ffffffffffffffffffffffffffffffffffffffff1673ffffffffffffffffffffffffffffffffffffffff1681526020019081526020016000208281548110151561183157fe5b9060005260206000200160000160149054906101000a900460ff161515141561196c57600860008473ffffffffffffffffffffffffffffffffffffffff1673ffffffffffffffffffffffffffffffffffffffff168152602001908152602001600020818154811015156118a057fe5b90600052602060002001600080820160006101000a81549073ffffffffffffffffffffffffffffffffffffffff02191690556000820160146101000a81549060ff021916905550506001600760008573ffffffffffffffffffffffffffffffffffffffff1673ffffffffffffffffffffffffffffffffffffffff16815260200190815260200160002060050160088282829054906101000a900460070b0392506101000a81548167ffffffffffffffff021916908360070b67ffffffffffffffff160217905550611add565b6001600860008573ffffffffffffffffffffffffffffffffffffffff1673ffffffffffffffffffffffffffffffffffffffff168152602001908152602001600020828154811015156119ba57fe5b9060005260206000200160000160146101000a81548160ff0219169083151502179055506001600760008573ffffffffffffffffffffffffffffffffffffffff1673ffffffffffffffffffffffffffffffffffffffff16815260200190815260200160002060050160088282829054906101000a900460070b0192506101000a81548167ffffffffffffffff021916908360070b67ffffffffffffffff1602179055506001600760008573ffffffffffffffffffffffffffffffffffffffff1673ffffffffffffffffffffffffffffffffffffffff16815260200190815260200160002060050160108282829054906101000a900460070b0392506101000a81548167ffffffffffffffff021916908360070b67ffffffffffffffff1602179055505b5b80806001019150506116e6565b50801515611c7157600860008373ffffffffffffffffffffffffffffffffffffffff1673ffffffffffffffffffffffffffffffffffffffff16815260200190815260200160002060408051908101604052803373ffffffffffffffffffffffffffffffffffffffff1681526020016001151581525090806001815401808255809150509060018203906000526020600020016000909192909190915060008201518160000160006101000a81548173ffffffffffffffffffffffffffffffffffffffff021916908373ffffffffffffffffffffffffffffffffffffffff16021790555060208201518160000160146101000a81548160ff0219169083151502179055505050506001600760008473ffffffffffffffffffffffffffffffffffffffff1673ffffffffffffffffffffffffffffffffffffffff16815260200190815260200160002060050160088282829054906101000a900460070b0192506101000a81548167ffffffffffffffff021916908360070b67ffffffffffffffff1602179055505b612208565b60008090505b600860008473ffffffffffffffffffffffffffffffffffffffff1673ffffffffffffffffffffffffffffffffffffffff16815260200190815260200160002080549050811015612081573373ffffffffffffffffffffffffffffffffffffffff16600860008573ffffffffffffffffffffffffffffffffffffffff1673ffffffffffffffffffffffffffffffffffffffff16815260200190815260200160002082815481101515611d2957fe5b9060005260206000200160000160009054906101000a900473ffffffffffffffffffffffffffffffffffffffff1673ffffffffffffffffffffffffffffffffffffffff161415612074576001915060001515600860008573ffffffffffffffffffffffffffffffffffffffff1673ffffffffffffffffffffffffffffffffffffffff16815260200190815260200160002082815481101515611dc757fe5b9060005260206000200160000160149054906101000a900460ff1615151415611f0257600860008473ffffffffffffffffffffffffffffffffffffffff1673ffffffffffffffffffffffffffffffffffffffff16815260200190815260200160002081815481101515611e3657fe5b90600052602060002001600080820160006101000a81549073ffffffffffffffffffffffffffffffffffffffff02191690556000820160146101000a81549060ff021916905550506001600760008573ffffffffffffffffffffffffffffffffffffffff1673ffffffffffffffffffffffffffffffffffffffff16815260200190815260200160002060050160108282829054906101000a900460070b0392506101000a81548167ffffffffffffffff021916908360070b67ffffffffffffffff160217905550612073565b6000600860008573ffffffffffffffffffffffffffffffffffffffff1673ffffffffffffffffffffffffffffffffffffffff16815260200190815260200160002082815481101515611f5057fe5b9060005260206000200160000160146101000a81548160ff0219169083151502179055506001600760008573ffffffffffffffffffffffffffffffffffffffff1673ffffffffffffffffffffffffffffffffffffffff16815260200190815260200160002060050160088282829054906101000a900460070b0392506101000a81548167ffffffffffffffff021916908360070b67ffffffffffffffff1602179055506001600760008573ffffffffffffffffffffffffffffffffffffffff1673ffffffffffffffffffffffffffffffffffffffff16815260200190815260200160002060050160108282829054906101000a900460070b0192506101000a81548167ffffffffffffffff021916908360070b67ffffffffffffffff1602179055505b5b8080600101915050611c7c565b5080151561220757600860008373ffffffffffffffffffffffffffffffffffffffff1673ffffffffffffffffffffffffffffffffffffffff16815260200190815260200160002060408051908101604052803373ffffffffffffffffffffffffffffffffffffffff1681526020016000151581525090806001815401808255809150509060018203906000526020600020016000909192909190915060008201518160000160006101000a81548173ffffffffffffffffffffffffffffffffffffffff021916908373ffffffffffffffffffffffffffffffffffffffff16021790555060208201518160000160146101000a81548160ff0219169083151502179055505050506001600760008473ffffffffffffffffffffffffffffffffffffffff1673ffffffffffffffffffffffffffffffffffffffff16815260200190815260200160002060050160108282829054906101000a900460070b0192506101000a81548167ffffffffffffffff021916908360070b67ffffffffffffffff1602179055505b5b61221182612b3c565b505050565b6060806060600660008573ffffffffffffffffffffffffffffffffffffffff1673ffffffffffffffffffffffffffffffffffffffff1681526020019081526020016000206000018054600181600116156101000203166002900480601f0160208091040260200160405190810160405280929190818152602001828054600181600116156101000203166002900480156122f15780601f106122c6576101008083540402835291602001916122f1565b820191906000526020600020905b8154815290600101906020018083116122d457829003601f168201915b50505050509250600660008573ffffffffffffffffffffffffffffffffffffffff1673ffffffffffffffffffffffffffffffffffffffff1681526020019081526020016000206001018054600181600116156101000203166002900480601f0160208091040260200160405190810160405280929190818152602001828054600181600116156101000203166002900480156123ce5780601f106123a3576101008083540402835291602001916123ce565b820191906000526020600020905b8154815290600101906020018083116123b157829003601f168201915b50505050509150600660008573ffffffffffffffffffffffffffffffffffffffff1673ffffffffffffffffffffffffffffffffffffffff16815260200190815260200160002060030180548060200260200160405190810160405280929190818152602001828054801561249757602002820191906000526020600020905b8160009054906101000a900473ffffffffffffffffffffffffffffffffffffffff1673ffffffffffffffffffffffffffffffffffffffff168152602001906001019080831161244d575b505050505090509193909250565b6124ae33612d9f565b1515612522576040517f08c379a000000000000000000000000000000000000000000000000000000000815260040180806020018281038252601f8152602001807f43616e206f6e6c7920626520616363657373656420627920757365722121210081525060200191505060405180910390fd5b60018060008373ffffffffffffffffffffffffffffffffffffffff1673ffffffffffffffffffffffffffffffffffffffff16815260200190815260200160002060006101000a81548160ff02191690831515021790555050565b61258533612d9f565b15156125f9576040517f08c379a000000000000000000000000000000000000000000000000000000000815260040180806020018281038252601f8152602001807f43616e206f6e6c7920626520616363657373656420627920757365722121210081525060200191505060405180910390fd5b60016000808373ffffffffffffffffffffffffffffffffffffffff1673ffffffffffffffffffffffffffffffffffffffff16815260200190815260200160002060006101000a81548160ff02191690831515021790555050565b60606000806060806000806000600760008a73ffffffffffffffffffffffffffffffffffffffff1673ffffffffffffffffffffffffffffffffffffffff1681526020019081526020016000206000018054600181600116156101000203166002900480601f0160208091040260200160405190810160405280929190818152602001828054600181600116156101000203166002900480156127365780601f1061270b57610100808354040283529160200191612736565b820191906000526020600020905b81548152906001019060200180831161271957829003601f168201915b50505050509750600760008a73ffffffffffffffffffffffffffffffffffffffff1673ffffffffffffffffffffffffffffffffffffffff16815260200190815260200160002060010160009054906101000a900473ffffffffffffffffffffffffffffffffffffffff169650600760008a73ffffffffffffffffffffffffffffffffffffffff1673ffffffffffffffffffffffffffffffffffffffff16815260200190815260200160002060020160009054906101000a900473ffffffffffffffffffffffffffffffffffffffff169550600760008a73ffffffffffffffffffffffffffffffffffffffff1673ffffffffffffffffffffffffffffffffffffffff1681526020019081526020016000206003018054600181600116156101000203166002900480601f0160208091040260200160405190810160405280929190818152602001828054600181600116156101000203166002900480156128dd5780601f106128b2576101008083540402835291602001916128dd565b820191906000526020600020905b8154815290600101906020018083116128c057829003601f168201915b50505050509450600760008a73ffffffffffffffffffffffffffffffffffffffff1673ffffffffffffffffffffffffffffffffffffffff1681526020019081526020016000206004018054600181600116156101000203166002900480601f0160208091040260200160405190810160405280929190818152602001828054600181600116156101000203166002900480156129ba5780601f1061298f576101008083540402835291602001916129ba565b820191906000526020600020905b81548152906001019060200180831161299d57829003601f168201915b50505050509350600760008a73ffffffffffffffffffffffffffffffffffffffff1673ffffffffffffffffffffffffffffffffffffffff16815260200190815260200160002060050160009054906101000a900460070b60070b9250600760008a73ffffffffffffffffffffffffffffffffffffffff1673ffffffffffffffffffffffffffffffffffffffff16815260200190815260200160002060050160089054906101000a900460070b60070b9150600760008a73ffffffffffffffffffffffffffffffffffffffff1673ffffffffffffffffffffffffffffffffffffffff16815260200190815260200160002060050160109054906101000a900460070b60070b9050919395975091939597565b6000600860008373ffffffffffffffffffffffffffffffffffffffff1673ffffffffffffffffffffffffffffffffffffffff16815260200190815260200160002083815481101515612b1957fe5b9060005260206000200160000160149054906101000a900460ff16905092915050565b612b94600760008373ffffffffffffffffffffffffffffffffffffffff1673ffffffffffffffffffffffffffffffffffffffff16815260200190815260200160002060050160109054906101000a900460070b610e68565b612bec600760008473ffffffffffffffffffffffffffffffffffffffff1673ffffffffffffffffffffffffffffffffffffffff16815260200190815260200160002060050160089054906101000a900460070b610e68565b03600a02600760008373ffffffffffffffffffffffffffffffffffffffff1673ffffffffffffffffffffffffffffffffffffffff16815260200190815260200160002060050160006101000a81548167ffffffffffffffff021916908360070b67ffffffffffffffff16021790555050565b600860205281600052604060002081815481101515612c7957fe5b90600052602060002001600091509150508060000160009054906101000a900473ffffffffffffffffffffffffffffffffffffffff16908060000160149054906101000a900460ff16905082565b612cd033612d9f565b1515612d44576040517f08c379a000000000000000000000000000000000000000000000000000000000815260040180806020018281038252601f8152602001807f43616e206f6e6c7920626520616363657373656420627920757365722121210081525060200191505060405180910390fd5b6001600260008373ffffffffffffffffffffffffffffffffffffffff1673ffffffffffffffffffffffffffffffffffffffff16815260200190815260200160002060006101000a81548160ff02191690831515021790555050565b6000600360008373ffffffffffffffffffffffffffffffffffffffff1673ffffffffffffffffffffffffffffffffffffffff16815260200190815260200160002060009054906101000a900460ff169050919050565b60008060008373ffffffffffffffffffffffffffffffffffffffff1673ffffffffffffffffffffffffffffffffffffffff16815260200190815260200160002060009054906101000a900460ff169050919050565b828054600181600116156101000203166002900490600052602060002090601f016020900481019282601f10612e8b57805160ff1916838001178555612eb9565b82800160010185558215612eb9579182015b82811115612eb8578251825591602001919060010190612e9d565b5b509050612ec69190612f4a565b5090565b828054600181600116156101000203166002900490600052602060002090601f016020900481019282601f10612f0b57805160ff1916838001178555612f39565b82800160010185558215612f39579182015b82811115612f38578251825591602001919060010190612f1d565b5b509050612f469190612f4a565b5090565b612f6c91905b80821115612f68576000816000905550600101612f50565b5090565b9056fea165627a7a723058204ef7dcbd1a1e8f9365420755b353511688d144d953fce6a6aba0fb92e74e13e70029",
  "source": "pragma solidity ^0.5.0;\n\nimport './AccountManagment.sol';\nimport './Sqrt.sol';\n\ncontract voting is AccountManagment, Sqrt{\n\n    struct votes{\n        address adr;\n        bool v;\n    }\n\n    mapping (address => votes[]) public artVotes;\n\n    function voteArticle(bool _up, address payable _artAddress) public payable{\n        bool found;\n        if(_up){\n            for(uint i = 0; i < artVotes[_artAddress].length; i++)\n            {\n                if(artVotes[_artAddress][i].adr == msg.sender){\n                    found = true;\n                    if(artVotes[_artAddress][i].v == true){\n                        delete (artVotes[_artAddress])[i];\n                        art[_artAddress].uVote -= 1;\n                    }\n                    else{\n                        artVotes[_artAddress][i].v = true;\n                        art[_artAddress].uVote += 1;\n                        art[_artAddress].dVote -= 1;\n                    }\n                }\n            }\n            if(!found){\n                artVotes[_artAddress].push(votes(msg.sender, true));\n                art[_artAddress].uVote += 1;\n            }\n        }\n        else{\n            for(uint i = 0; i < artVotes[_artAddress].length; i++)\n            {\n                if(artVotes[_artAddress][i].adr == msg.sender){\n                    found = true;\n                    if(artVotes[_artAddress][i].v == false){\n                        delete (artVotes[_artAddress])[i];\n                        art[_artAddress].dVote -= 1;\n                    }\n                    else{\n                        artVotes[_artAddress][i].v = false;\n                        art[_artAddress].uVote -= 1;\n                        art[_artAddress].dVote += 1;\n                    }\n                }\n            }\n            if(!found){\n                artVotes[_artAddress].push(votes(msg.sender, false));\n                art[_artAddress].dVote += 1;\n            }\n        }\n        updateRanking(_artAddress);\n    }\n    function getVote(uint _index, address _addr)public view returns(bool){\n        return artVotes[_addr][_index].v;\n    }\n\n    function updateRanking(address _artAddress) public{\n      art[_artAddress].aRank = 10*(sqrt(art[_artAddress].uVote) - sqrt(art[_artAddress].dVote));\n    }\n\n}",
  "sourcePath": "/home/abhiram/Documents/UZ/truffle/contracts/voting.sol",
  "compiler": {
    "name": "solc",
    "version": "0.5.0+commit.1d4f565a.Emscripten.clang"
  },
  "schemaVersion": "3.0.6",
  "updatedAt": "2019-05-26T06:41:31.830Z",
  "devdoc": {
    "methods": {}
  },
  "userdoc": {
    "methods": {}
  }
}